{
  "contractName": "InventorySharing",
  "abi": [
    {
      "inputs": [],
      "payable": false,
      "stateMutability": "nonpayable",
      "type": "constructor"
    },
    {
      "anonymous": false,
      "inputs": [
        {
          "indexed": true,
          "internalType": "address",
          "name": "admin",
          "type": "address"
        }
      ],
      "name": "AddedAdmin",
      "type": "event"
    },
    {
      "anonymous": false,
      "inputs": [
        {
          "indexed": true,
          "internalType": "address",
          "name": "admin",
          "type": "address"
        },
        {
          "indexed": true,
          "internalType": "bytes32",
          "name": "itemID",
          "type": "bytes32"
        }
      ],
      "name": "AddedCatalogueItem",
      "type": "event"
    },
    {
      "anonymous": false,
      "inputs": [
        {
          "indexed": true,
          "internalType": "address",
          "name": "dealer",
          "type": "address"
        },
        {
          "indexed": true,
          "internalType": "address",
          "name": "admin",
          "type": "address"
        }
      ],
      "name": "AddedDealer",
      "type": "event"
    },
    {
      "anonymous": false,
      "inputs": [
        {
          "indexed": true,
          "internalType": "address",
          "name": "dealer",
          "type": "address"
        },
        {
          "indexed": false,
          "internalType": "uint256",
          "name": "amount",
          "type": "uint256"
        }
      ],
      "name": "DealerBalanceWithdrawed",
      "type": "event"
    },
    {
      "anonymous": false,
      "inputs": [
        {
          "indexed": true,
          "internalType": "address",
          "name": "admin",
          "type": "address"
        },
        {
          "indexed": true,
          "internalType": "bytes32",
          "name": "itemID",
          "type": "bytes32"
        }
      ],
      "name": "ReactivatedCatalogueItem",
      "type": "event"
    },
    {
      "anonymous": false,
      "inputs": [
        {
          "indexed": true,
          "internalType": "address",
          "name": "admin",
          "type": "address"
        },
        {
          "indexed": true,
          "internalType": "bytes32",
          "name": "itemID",
          "type": "bytes32"
        },
        {
          "indexed": false,
          "internalType": "uint256",
          "name": "newReferencePrice",
          "type": "uint256"
        },
        {
          "indexed": false,
          "internalType": "uint256",
          "name": "newIncentive",
          "type": "uint256"
        }
      ],
      "name": "ReferencePriceAndIncentiveChanged",
      "type": "event"
    },
    {
      "anonymous": false,
      "inputs": [
        {
          "indexed": true,
          "internalType": "address",
          "name": "admin",
          "type": "address"
        }
      ],
      "name": "RemovedAdmin",
      "type": "event"
    },
    {
      "anonymous": false,
      "inputs": [
        {
          "indexed": true,
          "internalType": "address",
          "name": "admin",
          "type": "address"
        },
        {
          "indexed": true,
          "internalType": "bytes32",
          "name": "itemID",
          "type": "bytes32"
        }
      ],
      "name": "RemovedCatalogueItem",
      "type": "event"
    },
    {
      "anonymous": false,
      "inputs": [
        {
          "indexed": true,
          "internalType": "address",
          "name": "dealer",
          "type": "address"
        },
        {
          "indexed": true,
          "internalType": "address",
          "name": "admin",
          "type": "address"
        }
      ],
      "name": "RemovedDealer",
      "type": "event"
    },
    {
      "anonymous": false,
      "inputs": [
        {
          "indexed": true,
          "internalType": "address",
          "name": "dealer",
          "type": "address"
        },
        {
          "indexed": true,
          "internalType": "bytes32",
          "name": "itemID",
          "type": "bytes32"
        },
        {
          "indexed": true,
          "internalType": "address",
          "name": "sellerDealer",
          "type": "address"
        },
        {
          "indexed": false,
          "internalType": "uint256",
          "name": "amount",
          "type": "uint256"
        }
      ],
      "name": "RestockedFromDealer",
      "type": "event"
    },
    {
      "anonymous": false,
      "inputs": [
        {
          "indexed": true,
          "internalType": "address",
          "name": "dealer",
          "type": "address"
        },
        {
          "indexed": true,
          "internalType": "bytes32",
          "name": "itemID",
          "type": "bytes32"
        },
        {
          "indexed": false,
          "internalType": "uint256",
          "name": "amount",
          "type": "uint256"
        }
      ],
      "name": "RestockedFromManufacturer",
      "type": "event"
    },
    {
      "anonymous": false,
      "inputs": [
        {
          "indexed": true,
          "internalType": "address",
          "name": "dealer",
          "type": "address"
        },
        {
          "indexed": true,
          "internalType": "bytes32",
          "name": "itemID",
          "type": "bytes32"
        },
        {
          "indexed": false,
          "internalType": "uint256",
          "name": "quantitySold",
          "type": "uint256"
        }
      ],
      "name": "UpdatedInventoryWithSoldQuantity",
      "type": "event"
    },
    {
      "anonymous": false,
      "inputs": [
        {
          "indexed": true,
          "internalType": "address",
          "name": "dealer",
          "type": "address"
        },
        {
          "indexed": true,
          "internalType": "bytes32",
          "name": "itemID",
          "type": "bytes32"
        },
        {
          "indexed": false,
          "internalType": "uint256",
          "name": "quantity",
          "type": "uint256"
        }
      ],
      "name": "UpdatedQuantityAvailableForSharing",
      "type": "event"
    },
    {
      "constant": true,
      "inputs": [
        {
          "internalType": "address",
          "name": "",
          "type": "address"
        }
      ],
      "name": "admins",
      "outputs": [
        {
          "internalType": "bool",
          "name": "",
          "type": "bool"
        }
      ],
      "payable": false,
      "stateMutability": "view",
      "type": "function"
    },
    {
      "constant": true,
      "inputs": [
        {
          "internalType": "address",
          "name": "",
          "type": "address"
        }
      ],
      "name": "balances",
      "outputs": [
        {
          "internalType": "uint256",
          "name": "",
          "type": "uint256"
        }
      ],
      "payable": false,
      "stateMutability": "view",
      "type": "function"
    },
    {
      "constant": true,
      "inputs": [
        {
          "internalType": "address",
          "name": "",
          "type": "address"
        }
      ],
      "name": "dealers",
      "outputs": [
        {
          "internalType": "bool",
          "name": "",
          "type": "bool"
        }
      ],
      "payable": false,
      "stateMutability": "view",
      "type": "function"
    },
    {
      "constant": true,
      "inputs": [
        {
          "internalType": "address",
          "name": "",
          "type": "address"
        }
      ],
      "name": "inventories",
      "outputs": [
        {
          "internalType": "bytes32",
          "name": "inventoryID",
          "type": "bytes32"
        }
      ],
      "payable": false,
      "stateMutability": "view",
      "type": "function"
    },
    {
      "constant": true,
      "inputs": [],
      "name": "owner",
      "outputs": [
        {
          "internalType": "address",
          "name": "",
          "type": "address"
        }
      ],
      "payable": false,
      "stateMutability": "view",
      "type": "function"
    },
    {
      "constant": true,
      "inputs": [],
      "name": "getDealersCount",
      "outputs": [
        {
          "internalType": "uint256",
          "name": "",
          "type": "uint256"
        }
      ],
      "payable": false,
      "stateMutability": "view",
      "type": "function"
    },
    {
      "constant": true,
      "inputs": [
        {
          "internalType": "uint256",
          "name": "_index",
          "type": "uint256"
        }
      ],
      "name": "getDealerAddress",
      "outputs": [
        {
          "internalType": "address",
          "name": "",
          "type": "address"
        }
      ],
      "payable": false,
      "stateMutability": "view",
      "type": "function"
    },
    {
      "constant": false,
      "inputs": [
        {
          "internalType": "address",
          "name": "_newAdmin",
          "type": "address"
        }
      ],
      "name": "addAdmin",
      "outputs": [],
      "payable": false,
      "stateMutability": "nonpayable",
      "type": "function"
    },
    {
      "constant": false,
      "inputs": [
        {
          "internalType": "address",
          "name": "_admin",
          "type": "address"
        }
      ],
      "name": "removeAdmin",
      "outputs": [],
      "payable": false,
      "stateMutability": "nonpayable",
      "type": "function"
    },
    {
      "constant": true,
      "inputs": [
        {
          "internalType": "address",
          "name": "_admin",
          "type": "address"
        }
      ],
      "name": "isAdmin",
      "outputs": [
        {
          "internalType": "bool",
          "name": "",
          "type": "bool"
        }
      ],
      "payable": false,
      "stateMutability": "view",
      "type": "function"
    },
    {
      "constant": false,
      "inputs": [
        {
          "internalType": "address",
          "name": "_newDealer",
          "type": "address"
        }
      ],
      "name": "addDealer",
      "outputs": [],
      "payable": false,
      "stateMutability": "nonpayable",
      "type": "function"
    },
    {
      "constant": false,
      "inputs": [
        {
          "internalType": "address",
          "name": "_dealer",
          "type": "address"
        }
      ],
      "name": "removeDealer",
      "outputs": [],
      "payable": false,
      "stateMutability": "nonpayable",
      "type": "function"
    },
    {
      "constant": true,
      "inputs": [
        {
          "internalType": "address",
          "name": "_dealer",
          "type": "address"
        }
      ],
      "name": "isDealer",
      "outputs": [
        {
          "internalType": "bool",
          "name": "",
          "type": "bool"
        }
      ],
      "payable": false,
      "stateMutability": "view",
      "type": "function"
    },
    {
      "constant": false,
      "inputs": [
        {
          "internalType": "string",
          "name": "_name",
          "type": "string"
        },
        {
          "internalType": "string",
          "name": "_description",
          "type": "string"
        },
        {
          "internalType": "uint256",
          "name": "_referencePrice",
          "type": "uint256"
        },
        {
          "internalType": "uint256",
          "name": "incentive",
          "type": "uint256"
        }
      ],
      "name": "addCatalogueItem",
      "outputs": [
        {
          "internalType": "bytes32",
          "name": "itemID",
          "type": "bytes32"
        }
      ],
      "payable": false,
      "stateMutability": "nonpayable",
      "type": "function"
    },
    {
      "constant": false,
      "inputs": [
        {
          "internalType": "bytes32",
          "name": "_itemID",
          "type": "bytes32"
        }
      ],
      "name": "removeCatalogueItem",
      "outputs": [
        {
          "internalType": "bool",
          "name": "",
          "type": "bool"
        }
      ],
      "payable": false,
      "stateMutability": "nonpayable",
      "type": "function"
    },
    {
      "constant": false,
      "inputs": [
        {
          "internalType": "bytes32",
          "name": "_itemID",
          "type": "bytes32"
        }
      ],
      "name": "reactivateCatalogueItem",
      "outputs": [
        {
          "internalType": "bool",
          "name": "",
          "type": "bool"
        }
      ],
      "payable": false,
      "stateMutability": "nonpayable",
      "type": "function"
    },
    {
      "constant": false,
      "inputs": [
        {
          "internalType": "bytes32",
          "name": "_itemID",
          "type": "bytes32"
        },
        {
          "internalType": "uint256",
          "name": "_referencePrice",
          "type": "uint256"
        },
        {
          "internalType": "uint256",
          "name": "_incentive",
          "type": "uint256"
        }
      ],
      "name": "changeReferencePriceAndIncentive",
      "outputs": [
        {
          "internalType": "bool",
          "name": "",
          "type": "bool"
        }
      ],
      "payable": false,
      "stateMutability": "nonpayable",
      "type": "function"
    },
    {
      "constant": false,
      "inputs": [
        {
          "internalType": "bytes32",
          "name": "_itemID",
          "type": "bytes32"
        },
        {
          "internalType": "uint256",
          "name": "_amount",
          "type": "uint256"
        }
      ],
      "name": "restockFromManufacturer",
      "outputs": [
        {
          "internalType": "bool",
          "name": "",
          "type": "bool"
        }
      ],
      "payable": true,
      "stateMutability": "payable",
      "type": "function"
    },
    {
      "constant": false,
      "inputs": [
        {
          "internalType": "bytes32",
          "name": "_itemID",
          "type": "bytes32"
        },
        {
          "internalType": "address",
          "name": "_dealer",
          "type": "address"
        },
        {
          "internalType": "uint256",
          "name": "_amount",
          "type": "uint256"
        }
      ],
      "name": "restockFromDealer",
      "outputs": [
        {
          "internalType": "bool",
          "name": "",
          "type": "bool"
        }
      ],
      "payable": true,
      "stateMutability": "payable",
      "type": "function"
    },
    {
      "constant": false,
      "inputs": [
        {
          "internalType": "bytes32",
          "name": "_itemID",
          "type": "bytes32"
        },
        {
          "internalType": "uint256",
          "name": "_quantity",
          "type": "uint256"
        }
      ],
      "name": "updateInventoryWithSoldQuantity",
      "outputs": [
        {
          "internalType": "bool",
          "name": "",
          "type": "bool"
        }
      ],
      "payable": false,
      "stateMutability": "nonpayable",
      "type": "function"
    },
    {
      "constant": false,
      "inputs": [
        {
          "internalType": "bytes32",
          "name": "_itemID",
          "type": "bytes32"
        },
        {
          "internalType": "uint256",
          "name": "_quantity",
          "type": "uint256"
        }
      ],
      "name": "updateQuantityAvailableForSharing",
      "outputs": [
        {
          "internalType": "bool",
          "name": "",
          "type": "bool"
        }
      ],
      "payable": false,
      "stateMutability": "nonpayable",
      "type": "function"
    },
    {
      "constant": true,
      "inputs": [],
      "name": "getDealerBalance",
      "outputs": [
        {
          "internalType": "uint256",
          "name": "balance",
          "type": "uint256"
        }
      ],
      "payable": false,
      "stateMutability": "view",
      "type": "function"
    },
    {
      "constant": false,
      "inputs": [],
      "name": "withdrawDealerBalance",
      "outputs": [
        {
          "internalType": "bool",
          "name": "",
          "type": "bool"
        }
      ],
      "payable": false,
      "stateMutability": "nonpayable",
      "type": "function"
    },
    {
      "constant": false,
      "inputs": [],
      "name": "turnEmergencySwitch",
      "outputs": [],
      "payable": false,
      "stateMutability": "nonpayable",
      "type": "function"
    },
    {
      "constant": true,
      "inputs": [
        {
          "internalType": "address",
          "name": "_dealer",
          "type": "address"
        },
        {
          "internalType": "bytes32",
          "name": "_itemID",
          "type": "bytes32"
        }
      ],
      "name": "getInventoryItem",
      "outputs": [
        {
          "internalType": "bytes32",
          "name": "inventoryID",
          "type": "bytes32"
        },
        {
          "internalType": "uint256",
          "name": "stocks",
          "type": "uint256"
        },
        {
          "internalType": "uint256",
          "name": "availableForSharing",
          "type": "uint256"
        }
      ],
      "payable": false,
      "stateMutability": "view",
      "type": "function"
    },
    {
      "constant": true,
      "inputs": [],
      "name": "getCatalogueItemsCount",
      "outputs": [
        {
          "internalType": "uint256",
          "name": "",
          "type": "uint256"
        }
      ],
      "payable": false,
      "stateMutability": "view",
      "type": "function"
    },
    {
      "constant": true,
      "inputs": [],
      "name": "getCatalogueItemsIDs",
      "outputs": [
        {
          "internalType": "bytes32[]",
          "name": "",
          "type": "bytes32[]"
        }
      ],
      "payable": false,
      "stateMutability": "view",
      "type": "function"
    },
    {
      "constant": true,
      "inputs": [
        {
          "internalType": "bytes32",
          "name": "_itemID",
          "type": "bytes32"
        }
      ],
      "name": "getCatalogueItem",
      "outputs": [
        {
          "internalType": "string",
          "name": "name",
          "type": "string"
        },
        {
          "internalType": "string",
          "name": "description",
          "type": "string"
        },
        {
          "internalType": "uint256",
          "name": "referencePrice",
          "type": "uint256"
        },
        {
          "internalType": "uint256",
          "name": "incentive",
          "type": "uint256"
        },
        {
          "internalType": "bool",
          "name": "active",
          "type": "bool"
        }
      ],
      "payable": false,
      "stateMutability": "view",
      "type": "function"
    }
  ],
  "bytecode": "0x608060405234801561001057600080fd5b50600080546001600160a01b0319163390811782558152600160208190526040909120805460ff1990811690921790556008805490911690556122f9806100586000396000f3fe6080604052600436106101b75760003560e01c80636b121ed5116100ec5780639caee8db1161008a578063abcc9fd811610064578063abcc9fd814610803578063e2916f3814610868578063f62fe1d514610898578063fe2e81d4146108cb576101b7565b80639caee8db1461069d578063a2483a93146107bb578063aac023ad146107ee576101b7565b806386452c5a116100c657806386452c5a146106185780638da5cb5b1461065e57806395e3cf5014610673578063986458f014610688576101b7565b80636b121ed5146105ad57806370480275146105d05780637a40142014610603576101b7565b80633882651c11610159578063429b62e511610133578063429b62e5146103de5780635cf83338146104115780635cfb8c8814610550578063698aa65c1461057a576101b7565b80633882651c1461033c578063399e04c8146103515780633d1fb7c2146103a8576101b7565b80631785f53c116101955780631785f53c1461025f57806324d7806c1461029257806327e235e3146102c557806331b8ee901461030a576101b7565b806306d6cb76146101bc5780630e02825b146101f157806314b6909914610235575b600080fd5b3480156101c857600080fd5b506101ef600480360360208110156101df57600080fd5b50356001600160a01b03166108fe565b005b3480156101fd57600080fd5b506102216004803603604081101561021457600080fd5b5080359060200135610a6b565b604080519115158252519081900360200190f35b34801561024157600080fd5b506102216004803603602081101561025857600080fd5b5035610c15565b34801561026b57600080fd5b506101ef6004803603602081101561028257600080fd5b50356001600160a01b0316610d63565b34801561029e57600080fd5b50610221600480360360208110156102b557600080fd5b50356001600160a01b0316610e7d565b3480156102d157600080fd5b506102f8600480360360208110156102e857600080fd5b50356001600160a01b0316610e9b565b60408051918252519081900360200190f35b6102216004803603606081101561032057600080fd5b508035906001600160a01b036020820135169060400135610ead565b34801561034857600080fd5b506102f861118b565b34801561035d57600080fd5b5061038a6004803603604081101561037457600080fd5b506001600160a01b038135169060200135611192565b60408051938452602084019290925282820152519081900360600190f35b3480156103b457600080fd5b50610221600480360360608110156103cb57600080fd5b50803590602081013590604001356111d0565b3480156103ea57600080fd5b506102216004803603602081101561040157600080fd5b50356001600160a01b0316611329565b34801561041d57600080fd5b506102f86004803603608081101561043457600080fd5b81019060208101813564010000000081111561044f57600080fd5b82018360208201111561046157600080fd5b8035906020019184600183028401116401000000008311171561048357600080fd5b91908080601f01602080910402602001604051908101604052809392919081815260200183838082843760009201919091525092959493602081019350359150506401000000008111156104d657600080fd5b8201836020820111156104e857600080fd5b8035906020019184600183028401116401000000008311171561050a57600080fd5b91908080601f016020809104026020016040519081016040528093929190818152602001838380828437600092019190915250929550508235935050506020013561133e565b34801561055c57600080fd5b506102216004803603602081101561057357600080fd5b50356115b5565b34801561058657600080fd5b506102f86004803603602081101561059d57600080fd5b50356001600160a01b0316611707565b610221600480360360408110156105c357600080fd5b5080359060200135611719565b3480156105dc57600080fd5b506101ef600480360360208110156105f357600080fd5b50356001600160a01b0316611916565b34801561060f57600080fd5b506101ef611a35565b34801561062457600080fd5b506106426004803603602081101561063b57600080fd5b5035611aa8565b604080516001600160a01b039092168252519081900360200190f35b34801561066a57600080fd5b50610642611ad2565b34801561067f57600080fd5b50610221611ae1565b34801561069457600080fd5b506102f8611c07565b3480156106a957600080fd5b506106c7600480360360208110156106c057600080fd5b5035611c0d565b6040805190810184905260608101839052811515608082015260a08082528651908201528551819060208083019160c08401918a019080838360005b8381101561071b578181015183820152602001610703565b50505050905090810190601f1680156107485780820380516001836020036101000a031916815260200191505b50838103825287518152875160209182019189019080838360005b8381101561077b578181015183820152602001610763565b50505050905090810190601f1680156107a85780820380516001836020036101000a031916815260200191505b5097505050505050505060405180910390f35b3480156107c757600080fd5b506101ef600480360360208110156107de57600080fd5b50356001600160a01b0316611db8565b3480156107fa57600080fd5b506102f8611ed4565b34801561080f57600080fd5b50610818611f45565b60408051602080825283518183015283519192839290830191858101910280838360005b8381101561085457818101518382015260200161083c565b505050509050019250505060405180910390f35b34801561087457600080fd5b506102216004803603604081101561088b57600080fd5b5080359060200135611fa0565b3480156108a457600080fd5b50610221600480360360208110156108bb57600080fd5b50356001600160a01b0316612130565b3480156108d757600080fd5b50610221600480360360208110156108ee57600080fd5b50356001600160a01b0316612145565b3360009081526001602052604090205460ff1661095b576040805162461bcd60e51b815260206004820152601660248201527531b0b63632b91034b9903737ba1030b71030b236b4b760511b604482015290519081900360640190fd5b60085460ff16156109a1576040805162461bcd60e51b815260206004820152601a60248201526000805160206122a5833981519152604482015290519081900360640190fd5b6001600160a01b03811660009081526002602052604090205460ff166109f85760405133906001600160a01b038316907f0977179cc84844272feda75313961b4ebd938363dbc9731282c0d18da2b07d5990600090a35b6001600160a01b03166000818152600260205260408120805460ff191660019081179091556003805491820181559091527fc2575a0e9e593c00f959f8c92f12db2869c3395a3b0502d05e2516446f71f85b01805473ffffffffffffffffffffffffffffffffffffffff19169091179055565b3360009081526002602052604081205460ff16610ac8576040805162461bcd60e51b815260206004820152601660248201527531b0b63632b91034b9903737ba1030903232b0b632b960511b604482015290519081900360640190fd5b60085460ff1615610b0e576040805162461bcd60e51b815260206004820152601a60248201526000805160206122a5833981519152604482015290519081900360640190fd5b336000908152600660209081526040808320868452600281018352818420546001820190935290832054909291610b4b919063ffffffff61216316565b905083811015610ba2576040805162461bcd60e51b815260206004820152601960248201527f6e6f7420656e6f756768206974656d7320696e2073746f636b00000000000000604482015290519081900360640190fd5b610bb2818563ffffffff61217916565b60008681526001840160209081526040808320939093556002850181529082902086905581518681529151879233927f3358ccc0e0f19e1d916f6739f4cda8581d613fe252adbfefd038f6f7e9e9e81492918290030190a3506001949350505050565b3360009081526001602052604081205460ff16610c72576040805162461bcd60e51b815260206004820152601660248201527531b0b63632b91034b9903737ba1030b71030b236b4b760511b604482015290519081900360640190fd5b60085460ff1615610cb8576040805162461bcd60e51b815260206004820152601a60248201526000805160206122a5833981519152604482015290519081900360640190fd5b60008281526005602081905260409091209081015460ff16610d21576040805162461bcd60e51b815260206004820152600f60248201527f6974656d206e6f74206163746976650000000000000000000000000000000000604482015290519081900360640190fd5b60058101805460ff19169055604051839033907f21273b77b3ccf8fdf5140d12a151260a73b955b51880e5294c805fa509366e4190600090a350600192915050565b3360009081526001602052604090205460ff16610dc0576040805162461bcd60e51b815260206004820152601660248201527531b0b63632b91034b9903737ba1030b71030b236b4b760511b604482015290519081900360640190fd5b60085460ff1615610e06576040805162461bcd60e51b815260206004820152601a60248201526000805160206122a5833981519152604482015290519081900360640190fd5b6001600160a01b03811660009081526001602052604090205460ff1615610e5c576040516001600160a01b038216907f3137a7fedbfedb7895dfa5a6812a4566dae9ded68d00aeec13c6ed1fa84a1c8090600090a25b6001600160a01b03166000908152600160205260409020805460ff19169055565b6001600160a01b031660009081526001602052604090205460ff1690565b60076020526000908152604090205481565b3360009081526002602052604081205460ff16610f0a576040805162461bcd60e51b815260206004820152601660248201527531b0b63632b91034b9903737ba1030903232b0b632b960511b604482015290519081900360640190fd5b60085460ff1615610f50576040805162461bcd60e51b815260206004820152601a60248201526000805160206122a5833981519152604482015290519081900360640190fd5b3360009081526006602090815260408083206001600160a01b038716845281842088855260028101909352922054841115610fbc5760405162461bcd60e51b815260040180806020018281038252602681526020018061227f6026913960400191505060405180910390fd5b60008681526005602052604081206004810154600390910154610fe49163ffffffff61217916565b90506000610ff8828763ffffffff61218b16565b905080341461104e576040805162461bcd60e51b815260206004820152601f60248201527f73656e742076616c756520646f6573206e6f74206d6174636820707269636500604482015290519081900360640190fd5b600088815260018501602052604090205461106f908763ffffffff61216316565b6000898152600186016020908152604080832093909355600286019052205461109e908763ffffffff61217916565b600089815260028086016020908152604080842094909455600590529181206004015490916110e59189916110d9919063ffffffff61218b16565b9063ffffffff61218b16565b905060006110f9823463ffffffff61216316565b6001600160a01b038a16600090815260076020526040902054909150611125908263ffffffff61216316565b6001600160a01b038a166000818152600760209081526040918290209390935580518b8152905191928d9233927fdfdbb97bb55284c5fe3f527cae15bad503fb17534e432cab4754e8f1b16f467392908290030190a45060019998505050505050505050565b6003545b90565b6001600160a01b0390911660009081526006602090815260408083208054948452600181018352818420546002909101909252909120549192909190565b3360009081526001602052604081205460ff1661122d576040805162461bcd60e51b815260206004820152601660248201527531b0b63632b91034b9903737ba1030b71030b236b4b760511b604482015290519081900360640190fd5b60085460ff1615611273576040805162461bcd60e51b815260206004820152601a60248201526000805160206122a5833981519152604482015290519081900360640190fd5b60008481526005602081905260409091209081015460ff166112d1576040805162461bcd60e51b81526020600482015260126024820152716974656d206973206e6f742061637469766560701b604482015290519081900360640190fd5b600381018490556004810183905560408051858152602081018590528151879233927f781453ffe119df55975ba29e468d5d25a33d1e3b0b927ee37e54de7dd46ce125929081900390910190a3506001949350505050565b60016020526000908152604090205460ff1681565b3360009081526001602052604081205460ff1661139b576040805162461bcd60e51b815260206004820152601660248201527531b0b63632b91034b9903737ba1030b71030b236b4b760511b604482015290519081900360640190fd5b60085460ff16156113e1576040805162461bcd60e51b815260206004820152601a60248201526000805160206122a5833981519152604482015290519081900360640190fd5b8433436040516020018084805190602001908083835b602083106114165780518252601f1990920191602091820191016113f7565b6001836020036101000a038019825116818451168082178552505050505050905001836001600160a01b03166001600160a01b031660601b815260140182815260200193505050506040516020818303038152906040528051906020012090506004600101600082815260200190815260200160002060050160009054906101000a900460ff16156114a457fe5b6040805160c08101825282815260208082018881528284018890526060830187905260808301869052600160a0840181905260008681526005845294909420835181559051805193949193611501939285019291909101906121ab565b506040820151805161151d9160028401916020909101906121ab565b5060608201516003820155608082015160048083019190915560a0909201516005909101805460ff1916911515919091179055805460018101825560009182527f8a35acfbc15ff81a39ae7d344fd709f28e8600b4aa8c65c6b64bfe7fe36bd19b01829055604051829133917fa1fa6e383d9fbaa4867b9c2bb6174bc61a89aca815162034f8f2a1168ef29fc69190a3949350505050565b3360009081526001602052604081205460ff16611612576040805162461bcd60e51b815260206004820152601660248201527531b0b63632b91034b9903737ba1030b71030b236b4b760511b604482015290519081900360640190fd5b60085460ff1615611658576040805162461bcd60e51b815260206004820152601a60248201526000805160206122a5833981519152604482015290519081900360640190fd5b60008281526005602081905260409091209081015460ff16156116c2576040805162461bcd60e51b815260206004820152601360248201527f6974656d20616c72656164792061637469766500000000000000000000000000604482015290519081900360640190fd5b60058101805460ff19166001179055604051839033907fcffbbdbbf942c696ae67f8d04df4a2037a7c8c175bffa855eaaf6b50debe90a190600090a350600192915050565b60066020526000908152604090205481565b3360009081526002602052604081205460ff16611776576040805162461bcd60e51b815260206004820152601660248201527531b0b63632b91034b9903737ba1030903232b0b632b960511b604482015290519081900360640190fd5b60085460ff16156117bc576040805162461bcd60e51b815260206004820152601a60248201526000805160206122a5833981519152604482015290519081900360640190fd5b3360009081526006602090815260408083208684526005928390529220015460ff16611824576040805162461bcd60e51b81526020600482015260126024820152716974656d206973206e6f742061637469766560701b604482015290519081900360640190fd5b600084815260056020526040812060030154611846908563ffffffff61218b16565b905080341461189c576040805162461bcd60e51b815260206004820152601f60248201527f73656e742076616c756520646f6573206e6f74206d6174636820707269636500604482015290519081900360640190fd5b60008581526001830160205260409020546118bd908563ffffffff61216316565b60008681526001840160209081526040918290209290925580518681529051879233927fe2aeda4b6af8310030f56f563f971bb648267ba2605b0811c033ddefca25a739929081900390910190a3506001949350505050565b3360009081526001602052604090205460ff16611973576040805162461bcd60e51b815260206004820152601660248201527531b0b63632b91034b9903737ba1030b71030b236b4b760511b604482015290519081900360640190fd5b60085460ff16156119b9576040805162461bcd60e51b815260206004820152601a60248201526000805160206122a5833981519152604482015290519081900360640190fd5b6001600160a01b03811660009081526001602052604090205460ff16611a0e576040516001600160a01b038216907f7849194239ab1d31b991b5436d81370256505cf25eaafbcccbc66acd1189691690600090a25b6001600160a01b03166000908152600160208190526040909120805460ff19169091179055565b6000546001600160a01b03163314611a94576040805162461bcd60e51b815260206004820152601760248201527f63616c6c6572206973206e6f7420746865206f776e6572000000000000000000604482015290519081900360640190fd5b6008805460ff19811660ff90911615179055565b600060038281548110611ab757fe5b6000918252602090912001546001600160a01b031692915050565b6000546001600160a01b031681565b3360009081526002602052604081205460ff16611b3e576040805162461bcd60e51b815260206004820152601660248201527531b0b63632b91034b9903737ba1030903232b0b632b960511b604482015290519081900360640190fd5b3360009081526007602052604090205480611b8d576040805162461bcd60e51b815260206004820152600a6024820152696e6f2062616c616e636560b01b604482015290519081900360640190fd5b336000818152600760205260408082208290555183156108fc0291849190818181858888f19350505050158015611bc8573d6000803e3d6000fd5b5060408051828152905133917f456ce31d70a63f2ffd890c7ab69fd1a92d11fe49755c13e4d679a455bfc5f24e919081900360200190a2600191505090565b60045490565b6060806000806000611c1d612229565b600087815260056020908152604091829020825160c08101845281548152600180830180548651600293821615610100026000190190911692909204601f8101869004860283018601909652858252919492938581019391929190830182828015611cc95780601f10611c9e57610100808354040283529160200191611cc9565b820191906000526020600020905b815481529060010190602001808311611cac57829003601f168201915b5050509183525050600282810180546040805160206001841615610100026000190190931694909404601f81018390048302850183019091528084529381019390830182828015611d5b5780601f10611d3057610100808354040283529160200191611d5b565b820191906000526020600020905b815481529060010190602001808311611d3e57829003601f168201915b50505091835250506003820154602080830191909152600483015460408084019190915260059093015460ff1615156060928301528301519183015190830151608084015160a090940151929b919a509850919650945092505050565b3360009081526001602052604090205460ff16611e15576040805162461bcd60e51b815260206004820152601660248201527531b0b63632b91034b9903737ba1030b71030b236b4b760511b604482015290519081900360640190fd5b60085460ff1615611e5b576040805162461bcd60e51b815260206004820152601a60248201526000805160206122a5833981519152604482015290519081900360640190fd5b6001600160a01b03811660009081526002602052604090205460ff1615611eb35760405133906001600160a01b038316907ff344fa52093abcec4bf5463504fea7b18860ddefc28d3109f8284a93d0889afb90600090a35b6001600160a01b03166000908152600260205260409020805460ff19169055565b3360009081526002602052604081205460ff16611f31576040805162461bcd60e51b815260206004820152601660248201527531b0b63632b91034b9903737ba1030903232b0b632b960511b604482015290519081900360640190fd5b503360009081526007602052604090205490565b60606004600001805480602002602001604051908101604052809291908181526020018280548015611f9657602002820191906000526020600020905b815481526020019060010190808311611f82575b5050505050905090565b3360009081526002602052604081205460ff16611ffd576040805162461bcd60e51b815260206004820152601660248201527531b0b63632b91034b9903737ba1030903232b0b632b960511b604482015290519081900360640190fd5b60085460ff1615612043576040805162461bcd60e51b815260206004820152601a60248201526000805160206122a5833981519152604482015290519081900360640190fd5b33600090815260066020908152604080832086845260018101909252909120548311156120b7576040805162461bcd60e51b815260206004820152601960248201527f6e6f7420656e6f756768206974656d7320696e2073746f636b00000000000000604482015290519081900360640190fd5b60008481526001820160205260409020546120d8908463ffffffff61217916565b60008581526001830160209081526040918290209290925580518581529051869233927fd8cc4a3156da8a956e971e2e880f44155db4988211a3564635547591d32ab63b929081900390910190a35060019392505050565b60026020526000908152604090205460ff1681565b6001600160a01b031660009081526002602052604090205460ff1690565b60008282018381101561217257fe5b9392505050565b60008282111561218557fe5b50900390565b60008282028315806121a55750828482816121a257fe5b04145b61217257fe5b828054600181600116156101000203166002900490600052602060002090601f016020900481019282601f106121ec57805160ff1916838001178555612219565b82800160010185558215612219579182015b828111156122195782518255916020019190600101906121fe565b50612225929150612264565b5090565b6040518060c0016040528060008019168152602001606081526020016060815260200160008152602001600081526020016000151581525090565b61118f91905b80821115612225576000815560010161226a56fe6e6f7420656e6f756768206974656d7320617661696c61626c6520666f722073686172696e67656d657267656e63792073776974636820697320616374697665000000000000a265627a7a72315820e7c2cd95681f877628c0493b8cfd28b63cb619b6c000dc78b5e04385a0fd93d264736f6c63430005100032",
  "source": "pragma solidity 0.5.16;\n\n/// @title SafeMath\n/// @dev Math operations with safety checks that throw on error\nlibrary SafeMath {\n    function mul(uint256 a, uint256 b) internal pure returns (uint256) {\n        uint256 c = a * b;\n        assert(a == 0 || c / a == b);\n        return c;\n    }\n\n    function div(uint256 a, uint256 b) internal pure returns (uint256) {\n        uint256 c = a / b;\n        return c;\n    }\n\n    function sub(uint256 a, uint256 b) internal pure returns (uint256) {\n        assert(b <= a);\n        return a - b;\n    }\n\n    function add(uint256 a, uint256 b) internal pure returns (uint256) {\n        uint256 c = a + b;\n        assert(c >= a);\n        return c;\n    }\n}\n\n/// @title InventorySharing\n/// @author Lucas Fryd\ncontract InventorySharing {\n    using SafeMath for uint256;\n\n    address public owner;\n    mapping(address => bool) public admins;\n    mapping(address => bool) public dealers;\n    // dealers can be retreived via an array of addresses\n    address[] private dealersAddresses;\n\n    struct Inventory {\n        bytes32 inventoryID;\n        // stock quantities are stored inside a mapping, mapped from the bytes32 itemId to the uint256 quantity\n        mapping(bytes32 => uint256) stocks;\n        // quantities available for sharing are stored inside a mapping, mapped from the bytes32 itemId to the uint256 quantity\n        mapping(bytes32 => uint256) availableForSharing;\n    }\n\n    struct CatalogueItem {\n        bytes32 itemID;\n        string name;\n        string description;\n        uint256 referencePrice;\n        uint256 incentive;\n        bool active;\n    }\n\n    // catalogue items are stored inside a mapping, mapped from the bytes32 itemId to the Item\n    struct Catalogue {\n        bytes32[] itemIDs;\n        mapping(bytes32 => CatalogueItem) items;\n    }\n    Catalogue catalogue;\n\n    // inventories are stored inside a mapping, mapped from a dealer's address to an Inventory\n    mapping(address => Inventory) public inventories;\n\n    // balances of dealers\n    mapping(address => uint256) public balances;\n\n    // events\n    event AddedAdmin(address indexed admin);\n    event RemovedAdmin(address indexed admin);\n    event AddedDealer(address indexed dealer, address indexed admin);\n    event RemovedDealer(address indexed dealer, address indexed admin);\n\n    event AddedCatalogueItem(address indexed admin, bytes32 indexed itemID);\n    event RemovedCatalogueItem(address indexed admin, bytes32 indexed itemID);\n    event ReactivatedCatalogueItem(\n        address indexed admin,\n        bytes32 indexed itemID\n    );\n\n    event RestockedFromManufacturer(\n        address indexed dealer,\n        bytes32 indexed itemID,\n        uint256 amount\n    );\n\n    event RestockedFromDealer(\n        address indexed dealer,\n        bytes32 indexed itemID,\n        address indexed sellerDealer,\n        uint256 amount\n    );\n\n    event UpdatedInventoryWithSoldQuantity(\n        address indexed dealer,\n        bytes32 indexed itemID,\n        uint256 quantitySold\n    );\n\n    event UpdatedQuantityAvailableForSharing(\n        address indexed dealer,\n        bytes32 indexed itemID,\n        uint256 quantity\n    );\n\n    event ReferencePriceAndIncentiveChanged(\n        address indexed admin,\n        bytes32 indexed itemID,\n        uint256 newReferencePrice,\n        uint256 newIncentive\n    );\n\n    event DealerBalanceWithdrawed(address indexed dealer, uint256 amount);\n\n    // emergency switch\n    bool emergencySwitch;\n\n    /// @dev modifier, verifies that caller is the owner\n    modifier onlyOwner() {\n        require(owner == msg.sender, \"caller is not the owner\");\n        _;\n    }\n\n    /// @dev modifier, verifies that caller is an admin\n    modifier onlyAdmin() {\n        require(admins[msg.sender], \"caller is not an admin\");\n        _;\n    }\n\n    /// @dev modifier, verifies that caller is a dealer\n    modifier onlyDealer() {\n        require(dealers[msg.sender], \"caller is not a dealer\");\n        _;\n    }\n\n    modifier stopInEmergency() {\n        require(!emergencySwitch, \"emergency switch is active\");\n        _;\n    }\n\n    /// @dev constructor\n    constructor() public {\n        owner = msg.sender;\n        admins[msg.sender] = true;\n        emergencySwitch = false;\n    }\n\n    /// @dev Returns the number of dealers\n    /// @return The number of dealers\n    function getDealersCount() public view returns (uint256) {\n        return dealersAddresses.length;\n    }\n\n    /// @dev Returns a dealer's address\n    /// @param _index an value\n    /// @return The dealer's address\n    function getDealerAddress(uint256 _index) public view returns (address) {\n        return dealersAddresses[_index];\n    }\n\n    /// @notice add administrator\n    /// @dev only callable by an admin\n    /// @param _newAdmin address of account to be added as administrator\n    function addAdmin(address _newAdmin) external onlyAdmin stopInEmergency {\n        // only emit event if admin is not added yet\n        if (!admins[_newAdmin]) {\n            emit AddedAdmin(_newAdmin);\n        }\n        admins[_newAdmin] = true;\n    }\n\n    /// @notice remove administrator\n    /// @dev only callable by an admin\n    /// @param _admin address of account to be removed as administrator\n    function removeAdmin(address _admin) external onlyAdmin stopInEmergency {\n        // only emit event if admin is not removed yet\n        if (admins[_admin]) {\n            emit RemovedAdmin(_admin);\n        }\n        admins[_admin] = false;\n    }\n\n    /// @notice check if an address is an administrator\n    /// @param _admin address to check\n    function isAdmin(address _admin) public view returns (bool) {\n        return admins[_admin];\n    }\n\n    /// @notice add dealer\n    /// @dev only callable by admins\n    /// @param _newDealer address of account to be added as dealer\n    function addDealer(address _newDealer) external onlyAdmin stopInEmergency {\n        // only emit event if shopowner is not added yet\n        if (!dealers[_newDealer]) {\n            emit AddedDealer(_newDealer, msg.sender);\n        }\n        dealers[_newDealer] = true;\n        dealersAddresses.push(_newDealer);\n    }\n\n    /// @notice remove dealer\n    /// @dev only callable by admins\n    /// @param _dealer address of account to be removed as dealer\n    function removeDealer(address _dealer) external onlyAdmin stopInEmergency {\n        // only emit event if dealer is not removed yet\n        if (dealers[_dealer]) {\n            emit RemovedDealer(_dealer, msg.sender);\n        }\n        dealers[_dealer] = false;\n    }\n\n    /// @notice check if an address is a dealer\n    /// @param _dealer address to check\n    function isDealer(address _dealer) public view returns (bool) {\n        return dealers[_dealer];\n    }\n\n    /// @notice add an item to the catalogue\n    /// @dev only callable by admins, throws on duplicate item ID per inventory\n    /// @param _name name of item\n    /// @param _description description of item\n    /// @param _referencePrice price of item\n    /// @return itemID generated bytes32 ID of item\n    function addCatalogueItem(\n        string memory _name,\n        string memory _description,\n        uint256 _referencePrice,\n        uint256 incentive\n    ) public onlyAdmin stopInEmergency returns (bytes32 itemID) {\n        // generate pseudorandom ID out of name, msg.sender and timestamp\n        itemID = keccak256(abi.encodePacked(_name, msg.sender, block.number));\n\n        // ensure that there is no active item with same ID\n        assert(!catalogue.items[itemID].active);\n\n        // generate new item in items mapping\n        catalogue.items[itemID] = CatalogueItem({\n            itemID: itemID,\n            name: _name,\n            description: _description,\n            referencePrice: _referencePrice,\n            incentive: incentive,\n            active: true\n        });\n        // Add the itemID to itemIDs array\n        catalogue.itemIDs.push(itemID);\n\n        emit AddedCatalogueItem(msg.sender, itemID);\n    }\n\n    /// @notice removes an existing item from the catalogue\n    /// @dev only callable by admins, requires item to be active\n    /// @param _itemID ID of item to be removed\n    ///@return true on success, false on failure\n    function removeCatalogueItem(bytes32 _itemID)\n        public\n        onlyAdmin\n        stopInEmergency\n        returns (bool)\n    {\n        // storage pointer to item\n        CatalogueItem storage item = catalogue.items[_itemID];\n\n        // item has to be active in order to be removed\n        require(item.active, \"item not active\");\n\n        item.active = false;\n\n        emit RemovedCatalogueItem(msg.sender, _itemID);\n        return true;\n    }\n\n    /// @notice removes an existing item from the catalogue\n    /// @dev only callable by admins, requires item to be active\n    /// @param _itemID ID of item to be removed\n    ///@return true on success, false on failure\n    function reactivateCatalogueItem(bytes32 _itemID)\n        public\n        onlyAdmin\n        stopInEmergency\n        returns (bool)\n    {\n        // storage pointer to item\n        CatalogueItem storage item = catalogue.items[_itemID];\n\n        // item has to be inactive in order to be reactivated\n        require(!item.active, \"item already active\");\n\n        item.active = true;\n\n        emit ReactivatedCatalogueItem(msg.sender, _itemID);\n        return true;\n    }\n\n    /// @notice changes reference price and incentive of an item\n    /// @param _itemID ID of item\n    /// @param _referencePrice new reference price\n    /// @param _incentive new incentive\n    /// @return true on success, false on failure\n    function changeReferencePriceAndIncentive(\n        bytes32 _itemID,\n        uint256 _referencePrice,\n        uint256 _incentive\n    ) public onlyAdmin stopInEmergency returns (bool) {\n        // storage pointer to item\n        CatalogueItem storage item = catalogue.items[_itemID];\n        // ensure that item is still active\n        require(item.active, \"item is not active\");\n        item.referencePrice = _referencePrice;\n        item.incentive = _incentive;\n        emit ReferencePriceAndIncentiveChanged(\n            msg.sender,\n            _itemID,\n            _referencePrice,\n            _incentive\n        );\n        return true;\n    }\n\n    /// @notice restocks quantity of an item from the manufacturer\n    /// @param _itemID ID of item\n    /// @param _amount amount to restock\n    /// @return true on success, false on failure\n    function restockFromManufacturer(bytes32 _itemID, uint256 _amount)\n        public\n        payable\n        onlyDealer\n        stopInEmergency\n        returns (bool)\n    {\n        // storage pointer to the dealer's inventory\n        Inventory storage inventory = inventories[msg.sender];\n        // ensure that the catalogue item is still active\n        require(catalogue.items[_itemID].active, \"item is not active\");\n        // check if provided value matches price\n        uint256 priceToPay = catalogue.items[_itemID].referencePrice.mul(\n            _amount\n        );\n        require(msg.value == priceToPay, \"sent value does not match price\");\n        // Add restocked quantity\n        inventory.stocks[_itemID] = inventory.stocks[_itemID].add(_amount);\n        emit RestockedFromManufacturer(msg.sender, _itemID, _amount);\n        return true;\n    }\n\n    /// @notice restocks quantity of an item from another dealer\n    /// @param _itemID ID of item\n    /// @param _dealer address of the dealer\n    /// @param _amount amount to restock\n    /// @return true on success, false on failure\n    function restockFromDealer(\n        bytes32 _itemID,\n        address _dealer,\n        uint256 _amount\n    ) public payable onlyDealer stopInEmergency returns (bool) {\n        // storage pointers to the dealers' inventories\n        Inventory storage buyerInventory = inventories[msg.sender];\n        Inventory storage sellerInventory = inventories[_dealer];\n        // ensure that the seller has enough items available for inventory sharing\n        require(\n            sellerInventory.availableForSharing[_itemID] >= _amount,\n            \"not enough items available for sharing\"\n        );\n        // check if provided value matches price (minus the incentive set by the manufacturer)\n        uint256 priceMinusIncentive = catalogue.items[_itemID]\n            .referencePrice\n            .sub(catalogue.items[_itemID].incentive);\n        uint256 priceToPay = priceMinusIncentive.mul(_amount);\n        require(msg.value == priceToPay, \"sent value does not match price\");\n        // Add restocked quantity to the buyer's inventory\n        buyerInventory.stocks[_itemID] = buyerInventory.stocks[_itemID].add(\n            _amount\n        );\n        // Remove restocked quantity from the seller's inventory\n        sellerInventory.availableForSharing[_itemID] = sellerInventory\n            .availableForSharing[_itemID]\n            .sub(_amount);\n        // Credit seller, including incentive bonus\n        uint256 bonus = catalogue.items[_itemID].incentive.mul(2).mul(_amount);\n        uint256 topUp = bonus.add(msg.value);\n        balances[_dealer] = balances[_dealer].add(topUp);\n        emit RestockedFromDealer(msg.sender, _itemID, _dealer, _amount);\n        return true;\n    }\n\n    /// @notice update a dealer's inventory quantity of an item to reflect sales (only decrease)\n    /// @param _itemID ID of item\n    /// @param _quantity quantity sold\n    /// @return true on success, false on failure\n    function updateInventoryWithSoldQuantity(bytes32 _itemID, uint256 _quantity)\n        public\n        onlyDealer\n        stopInEmergency\n        returns (bool)\n    {\n        // storage pointer to the dealer's inventory\n        Inventory storage inventory = inventories[msg.sender];\n        // check if the quantity sold is not higher than the stock\n        require(\n            inventory.stocks[_itemID] >= _quantity,\n            \"not enough items in stock\"\n        );\n\n        // Remove sold quantity from stock\n        inventory.stocks[_itemID] = inventory.stocks[_itemID].sub(_quantity);\n        emit UpdatedInventoryWithSoldQuantity(msg.sender, _itemID, _quantity);\n        return true;\n    }\n\n    /// @notice increases a dealer's quantity of an item available for share (decrease or increase)\n    /// @param _itemID ID of item\n    /// @param _quantity quantity to add or remove\n    /// @return true on success, false on failure\n    function updateQuantityAvailableForSharing(\n        bytes32 _itemID,\n        uint256 _quantity\n    ) public onlyDealer stopInEmergency returns (bool) {\n        // storage pointer to the dealer's inventory\n        Inventory storage inventory = inventories[msg.sender];\n        // check if the quantity put for sharing is not higher than the stock + quantity already shared\n        uint256 totalQuantity = inventory.stocks[_itemID].add(\n            inventory.availableForSharing[_itemID]\n        );\n        require(totalQuantity >= _quantity, \"not enough items in stock\");\n        // Update stock\n        inventory.stocks[_itemID] = totalQuantity.sub(_quantity);\n        // Update availableForSharing\n        inventory.availableForSharing[_itemID] = _quantity;\n        emit UpdatedQuantityAvailableForSharing(msg.sender, _itemID, _quantity);\n        return true;\n    }\n\n    /// @notice return dealer's balance\n    /// @return balance\n    function getDealerBalance()\n        public\n        view\n        onlyDealer\n        returns (uint256 balance)\n    {\n        balance = balances[msg.sender];\n    }\n\n    /// @notice allows withdrawal of a dealer's balance including incentive bonus\n    /// @return true on success, false on failure\n    function withdrawDealerBalance() public onlyDealer returns (bool) {\n        uint256 balance = balances[msg.sender];\n        require(balance > 0, \"no balance\");\n        balances[msg.sender] = 0;\n        msg.sender.transfer(balance);\n        emit DealerBalanceWithdrawed(msg.sender, balance);\n        return true;\n    }\n\n    /// @notice turns the emergency switch, only callable by owner\n    function turnEmergencySwitch() public onlyOwner {\n        emergencySwitch = !emergencySwitch;\n    }\n\n    /// @notice return a dealer's inventory\n    /// @param _dealer address of dealer\n    /// @return inventoryID ID of the inventory\n    function getInventoryItem(address _dealer, bytes32 _itemID)\n        public\n        view\n        returns (\n            bytes32 inventoryID,\n            uint256 stocks,\n            uint256 availableForSharing\n        )\n    {\n        Inventory storage inventory = inventories[_dealer];\n        inventoryID = inventory.inventoryID;\n        stocks = inventory.stocks[_itemID];\n        availableForSharing = inventory.availableForSharing[_itemID];\n    }\n\n    /// @notice return the number of catalogue items\n    /// @return number of catalogue items uncluding inactive\n    function getCatalogueItemsCount() public view returns (uint256) {\n        return catalogue.itemIDs.length;\n    }\n\n    /// @notice return the IDs of catalogue items\n    /// @return array of catalogue items IDs\n    function getCatalogueItemsIDs() public view returns (bytes32[] memory) {\n        return catalogue.itemIDs;\n    }\n\n    /// @notice return item of the catalogue\n    /// @param _itemID id of an item\n    /// @return name of item\n    /// @return description of item\n    /// @return referencePrice of item\n    /// @return incentive incentive bonus set by the manufacturer\n    /// @return active bool flag whether item is active\n    function getCatalogueItem(bytes32 _itemID)\n        public\n        view\n        returns (\n            string memory name,\n            string memory description,\n            uint256 referencePrice,\n            uint256 incentive,\n            bool active\n        )\n    {\n        CatalogueItem memory item = catalogue.items[_itemID];\n        name = item.name;\n        description = item.description;\n        referencePrice = item.referencePrice;\n        incentive = item.incentive;\n        active = item.active;\n    }\n}\n",
  "sourcePath": "/Users/lucasfryd/0.CONSENSYS/consensys-inventory-sharing/contracts/InventorySharing.sol",
  "compiler": {
    "name": "solc",
    "version": "0.5.16+commit.9c3226ce.Emscripten.clang"
  },
  "schemaVersion": "3.3.2",
  "updatedAt": "2020-11-30T19:15:28.211Z",
  "networkType": "ethereum",
  "devdoc": {
    "author": "Lucas Fryd",
    "methods": {
      "addAdmin(address)": {
        "details": "only callable by an admin",
        "params": {
          "_newAdmin": "address of account to be added as administrator"
        }
      },
      "addCatalogueItem(string,string,uint256,uint256)": {
        "details": "only callable by admins, throws on duplicate item ID per inventory",
        "params": {
          "_description": "description of item",
          "_name": "name of item",
          "_referencePrice": "price of item"
        },
        "return": "itemID generated bytes32 ID of item"
      },
      "addDealer(address)": {
        "details": "only callable by admins",
        "params": {
          "_newDealer": "address of account to be added as dealer"
        }
      },
      "changeReferencePriceAndIncentive(bytes32,uint256,uint256)": {
        "params": {
          "_incentive": "new incentive",
          "_itemID": "ID of item",
          "_referencePrice": "new reference price"
        },
        "return": "true on success, false on failure"
      },
      "constructor": {
        "details": "constructor"
      },
      "getCatalogueItem(bytes32)": {
        "params": {
          "_itemID": "id of an item"
        },
        "return": "name of itemdescription of itemreferencePrice of itemincentive incentive bonus set by the manufactureractive bool flag whether item is active"
      },
      "getCatalogueItemsCount()": {
        "return": "number of catalogue items uncluding inactive"
      },
      "getCatalogueItemsIDs()": {
        "return": "array of catalogue items IDs"
      },
      "getDealerAddress(uint256)": {
        "details": "Returns a dealer's address",
        "params": {
          "_index": "an value"
        },
        "return": "The dealer's address"
      },
      "getDealerBalance()": {
        "return": "balance"
      },
      "getDealersCount()": {
        "details": "Returns the number of dealers",
        "return": "The number of dealers"
      },
      "getInventoryItem(address,bytes32)": {
        "params": {
          "_dealer": "address of dealer"
        },
        "return": "inventoryID ID of the inventory"
      },
      "isAdmin(address)": {
        "params": {
          "_admin": "address to check"
        }
      },
      "isDealer(address)": {
        "params": {
          "_dealer": "address to check"
        }
      },
      "reactivateCatalogueItem(bytes32)": {
        "details": "only callable by admins, requires item to be active",
        "params": {
          "_itemID": "ID of item to be removed"
        },
        "return": "true on success, false on failure"
      },
      "removeAdmin(address)": {
        "details": "only callable by an admin",
        "params": {
          "_admin": "address of account to be removed as administrator"
        }
      },
      "removeCatalogueItem(bytes32)": {
        "details": "only callable by admins, requires item to be active",
        "params": {
          "_itemID": "ID of item to be removed"
        },
        "return": "true on success, false on failure"
      },
      "removeDealer(address)": {
        "details": "only callable by admins",
        "params": {
          "_dealer": "address of account to be removed as dealer"
        }
      },
      "restockFromDealer(bytes32,address,uint256)": {
        "params": {
          "_amount": "amount to restock",
          "_dealer": "address of the dealer",
          "_itemID": "ID of item"
        },
        "return": "true on success, false on failure"
      },
      "restockFromManufacturer(bytes32,uint256)": {
        "params": {
          "_amount": "amount to restock",
          "_itemID": "ID of item"
        },
        "return": "true on success, false on failure"
      },
      "updateInventoryWithSoldQuantity(bytes32,uint256)": {
        "params": {
          "_itemID": "ID of item",
          "_quantity": "quantity sold"
        },
        "return": "true on success, false on failure"
      },
      "updateQuantityAvailableForSharing(bytes32,uint256)": {
        "params": {
          "_itemID": "ID of item",
          "_quantity": "quantity to add or remove"
        },
        "return": "true on success, false on failure"
      },
      "withdrawDealerBalance()": {
        "return": "true on success, false on failure"
      }
    },
    "title": "InventorySharing"
  },
  "userdoc": {
    "methods": {
      "addAdmin(address)": {
        "notice": "add administrator"
      },
      "addCatalogueItem(string,string,uint256,uint256)": {
        "notice": "add an item to the catalogue"
      },
      "addDealer(address)": {
        "notice": "add dealer"
      },
      "changeReferencePriceAndIncentive(bytes32,uint256,uint256)": {
        "notice": "changes reference price and incentive of an item"
      },
      "getCatalogueItem(bytes32)": {
        "notice": "return item of the catalogue"
      },
      "getCatalogueItemsCount()": {
        "notice": "return the number of catalogue items"
      },
      "getCatalogueItemsIDs()": {
        "notice": "return the IDs of catalogue items"
      },
      "getDealerBalance()": {
        "notice": "return dealer's balance"
      },
      "getInventoryItem(address,bytes32)": {
        "notice": "return a dealer's inventory"
      },
      "isAdmin(address)": {
        "notice": "check if an address is an administrator"
      },
      "isDealer(address)": {
        "notice": "check if an address is a dealer"
      },
      "reactivateCatalogueItem(bytes32)": {
        "notice": "removes an existing item from the catalogue"
      },
      "removeAdmin(address)": {
        "notice": "remove administrator"
      },
      "removeCatalogueItem(bytes32)": {
        "notice": "removes an existing item from the catalogue"
      },
      "removeDealer(address)": {
        "notice": "remove dealer"
      },
      "restockFromDealer(bytes32,address,uint256)": {
        "notice": "restocks quantity of an item from another dealer"
      },
      "restockFromManufacturer(bytes32,uint256)": {
        "notice": "restocks quantity of an item from the manufacturer"
      },
      "turnEmergencySwitch()": {
        "notice": "turns the emergency switch, only callable by owner"
      },
      "updateInventoryWithSoldQuantity(bytes32,uint256)": {
        "notice": "update a dealer's inventory quantity of an item to reflect sales (only decrease)"
      },
      "updateQuantityAvailableForSharing(bytes32,uint256)": {
        "notice": "increases a dealer's quantity of an item available for share (decrease or increase)"
      },
      "withdrawDealerBalance()": {
        "notice": "allows withdrawal of a dealer's balance including incentive bonus"
      }
    }
  }
}